{
  "_format": "hh-sol-artifact-1",
  "contractName": "ConsentAudit",
  "sourceName": "contracts/ConsentAudit.sol",
  "abi": [
    {
      "anonymous": false,
      "inputs": [
        {
          "indexed": true,
          "internalType": "bytes32",
          "name": "resource",
          "type": "bytes32"
        },
        {
          "indexed": true,
          "internalType": "bytes32",
          "name": "client_id",
          "type": "bytes32"
        },
        {
          "indexed": false,
          "internalType": "uint256",
          "name": "from",
          "type": "uint256"
        },
        {
          "indexed": false,
          "internalType": "uint256",
          "name": "to",
          "type": "uint256"
        }
      ],
      "name": "NewConsent",
      "type": "event"
    },
    {
      "anonymous": false,
      "inputs": [
        {
          "indexed": true,
          "internalType": "bytes32",
          "name": "resource",
          "type": "bytes32"
        },
        {
          "indexed": true,
          "internalType": "bytes32",
          "name": "client_id",
          "type": "bytes32"
        }
      ],
      "name": "RevokedConsent",
      "type": "event"
    },
    {
      "inputs": [
        {
          "internalType": "bytes32",
          "name": "resource",
          "type": "bytes32"
        }
      ],
      "name": "getConsents",
      "outputs": [
        {
          "components": [
            {
              "internalType": "bytes32",
              "name": "client_id",
              "type": "bytes32"
            },
            {
              "internalType": "uint256",
              "name": "from",
              "type": "uint256"
            },
            {
              "internalType": "uint256",
              "name": "to",
              "type": "uint256"
            },
            {
              "internalType": "bytes32",
              "name": "auth_server_url",
              "type": "bytes32"
            },
            {
              "internalType": "bytes32",
              "name": "auth_server_tag",
              "type": "bytes32"
            },
            {
              "internalType": "bytes32",
              "name": "scope",
              "type": "bytes32"
            }
          ],
          "internalType": "struct ConsentAudit.Consent[]",
          "name": "",
          "type": "tuple[]"
        }
      ],
      "stateMutability": "view",
      "type": "function"
    },
    {
      "inputs": [
        {
          "internalType": "bytes32",
          "name": "resource",
          "type": "bytes32"
        },
        {
          "internalType": "bytes32",
          "name": "client_id",
          "type": "bytes32"
        }
      ],
      "name": "getEffectiveness",
      "outputs": [
        {
          "internalType": "uint256",
          "name": "",
          "type": "uint256"
        },
        {
          "internalType": "uint256",
          "name": "",
          "type": "uint256"
        }
      ],
      "stateMutability": "view",
      "type": "function"
    },
    {
      "inputs": [
        {
          "internalType": "bytes32",
          "name": "resource",
          "type": "bytes32"
        },
        {
          "internalType": "bytes32",
          "name": "client_id",
          "type": "bytes32"
        }
      ],
      "name": "getScope",
      "outputs": [
        {
          "internalType": "bytes32",
          "name": "",
          "type": "bytes32"
        }
      ],
      "stateMutability": "view",
      "type": "function"
    },
    {
      "inputs": [
        {
          "internalType": "bytes32",
          "name": "resource",
          "type": "bytes32"
        },
        {
          "internalType": "bytes32",
          "name": "client_id",
          "type": "bytes32"
        },
        {
          "internalType": "bytes32",
          "name": "auth_server_url",
          "type": "bytes32"
        },
        {
          "internalType": "bytes32",
          "name": "auth_server_tag",
          "type": "bytes32"
        },
        {
          "internalType": "uint256",
          "name": "from",
          "type": "uint256"
        },
        {
          "internalType": "uint256",
          "name": "to",
          "type": "uint256"
        },
        {
          "internalType": "bytes32",
          "name": "scope",
          "type": "bytes32"
        }
      ],
      "name": "grantConsent",
      "outputs": [],
      "stateMutability": "nonpayable",
      "type": "function"
    },
    {
      "inputs": [
        {
          "internalType": "bytes32",
          "name": "resource",
          "type": "bytes32"
        },
        {
          "internalType": "bytes32",
          "name": "client_id",
          "type": "bytes32"
        }
      ],
      "name": "isValidConsent",
      "outputs": [
        {
          "internalType": "bool",
          "name": "",
          "type": "bool"
        }
      ],
      "stateMutability": "view",
      "type": "function"
    },
    {
      "inputs": [
        {
          "internalType": "bytes32",
          "name": "",
          "type": "bytes32"
        },
        {
          "internalType": "uint256",
          "name": "",
          "type": "uint256"
        }
      ],
      "name": "resources",
      "outputs": [
        {
          "internalType": "bytes32",
          "name": "client_id",
          "type": "bytes32"
        },
        {
          "internalType": "uint256",
          "name": "from",
          "type": "uint256"
        },
        {
          "internalType": "uint256",
          "name": "to",
          "type": "uint256"
        },
        {
          "internalType": "bytes32",
          "name": "auth_server_url",
          "type": "bytes32"
        },
        {
          "internalType": "bytes32",
          "name": "auth_server_tag",
          "type": "bytes32"
        },
        {
          "internalType": "bytes32",
          "name": "scope",
          "type": "bytes32"
        }
      ],
      "stateMutability": "view",
      "type": "function"
    },
    {
      "inputs": [
        {
          "internalType": "bytes32",
          "name": "resource",
          "type": "bytes32"
        },
        {
          "internalType": "bytes32",
          "name": "client_id",
          "type": "bytes32"
        }
      ],
      "name": "revokeConsent",
      "outputs": [],
      "stateMutability": "nonpayable",
      "type": "function"
    }
  ],
  "bytecode": "0x608060405234801561001057600080fd5b50610be3806100206000396000f3fe608060405234801561001057600080fd5b506004361061007d5760003560e01c8063baf760a11161005b578063baf760a1146100fe578063c53ee1be14610133578063ee39e6c614610163578063fcef4ab41461017f5761007d565b806334cab56f14610082578063718bdb961461009e578063b83fa9f6146100ce575b600080fd5b61009c600480360381019061009791906107cc565b6101b0565b005b6100b860048036038101906100b3919061086e565b6102a0565b6040516100c591906108c9565b60405180910390f35b6100e860048036038101906100e391906108e4565b610324565b6040516100f59190610a59565b60405180910390f35b61011860048036038101906101139190610a7b565b6103d1565b60405161012a96959493929190610ad9565b60405180910390f35b61014d6004803603810190610148919061086e565b61042a565b60405161015a9190610b3a565b60405180910390f35b61017d6004803603810190610178919061086e565b6104e2565b005b6101996004803603810190610194919061086e565b610669565b6040516101a7929190610b55565b60405180910390f35b60006040518060c00160405280888152602001858152602001848152602001878152602001868152602001838152509050600080898152602001908152602001600020819080600181540180825580915050600190039060005260206000209060060201600090919091909150600082015181600001556020820151816001015560408201518160020155606082015181600301556080820151816004015560a08201518160050155505086887f0ac3a738ad399f5ed4a7cb3db5d450e06c3db7993ccb4988fac33328863e3848868660405161028e929190610b55565b60405180910390a35050505050505050565b600080600090505b60008085815260200190815260200160002080549050811015610318578260008086815260200190815260200160002082815481106102ea576102e9610b7e565b5b9060005260206000209060060201600001540361030b57600191505061031e565b80806001019150506102a8565b50600090505b92915050565b6060600080838152602001908152602001600020805480602002602001604051908101604052809291908181526020016000905b828210156103c657838290600052602060002090600602016040518060c0016040529081600082015481526020016001820154815260200160028201548152602001600382015481526020016004820154815260200160058201548152505081526020019060010190610358565b505050509050919050565b600060205281600052604060002081815481106103ed57600080fd5b9060005260206000209060060201600091509150508060000154908060010154908060020154908060030154908060040154908060050154905086565b600080600090505b600080858152602001908152602001600020805490508110156104d65782600080868152602001908152602001600020828154811061047457610473610b7e565b5b906000526020600020906006020160000154036104c95760008085815260200190815260200160002081815481106104af576104ae610b7e565b5b9060005260206000209060060201600501549150506104dc565b8080600101915050610432565b50600090505b92915050565b60005b600080848152602001908152602001600020805490508110156106635781600080858152602001908152602001600020828154811061052757610526610b7e565b5b90600052602060002090600602016000015403610656576040518060c001604052806000801b815260200160008152602001600081526020016000801916815260200160008019168152602001600080191681525060008085815260200190815260200160002082815481106105a05761059f610b7e565b5b9060005260206000209060060201600082015181600001556020820151816001015560408201518160020155606082015181600301556080820151816004015560a08201518160050155905050600080848152602001908152602001600020818154811061061157610610610b7e565b5b906000526020600020906006020160000154837fed99b2f755cff26bbf9850dcc1a2aa318b66beb6ade67a7796b2c2c580dd072560405160405180910390a350610665565b80806001019150506104e5565b505b5050565b60008060005b6000808681526020019081526020016000208054905081101561074b578360008087815260200190815260200160002082815481106106b1576106b0610b7e565b5b9060005260206000209060060201600001540361073e5760008086815260200190815260200160002081815481106106ec576106eb610b7e565b5b906000526020600020906006020160010154600080878152602001908152602001600020828154811061072257610721610b7e565b5b9060005260206000209060060201600201549250925050610754565b808060010191505061066f565b50600080915091505b9250929050565b600080fd5b6000819050919050565b61077381610760565b811461077e57600080fd5b50565b6000813590506107908161076a565b92915050565b6000819050919050565b6107a981610796565b81146107b457600080fd5b50565b6000813590506107c6816107a0565b92915050565b600080600080600080600060e0888a0312156107eb576107ea61075b565b5b60006107f98a828b01610781565b975050602061080a8a828b01610781565b965050604061081b8a828b01610781565b955050606061082c8a828b01610781565b945050608061083d8a828b016107b7565b93505060a061084e8a828b016107b7565b92505060c061085f8a828b01610781565b91505092959891949750929550565b600080604083850312156108855761088461075b565b5b600061089385828601610781565b92505060206108a485828601610781565b9150509250929050565b60008115159050919050565b6108c3816108ae565b82525050565b60006020820190506108de60008301846108ba565b92915050565b6000602082840312156108fa576108f961075b565b5b600061090884828501610781565b91505092915050565b600081519050919050565b600082825260208201905092915050565b6000819050602082019050919050565b61094681610760565b82525050565b61095581610796565b82525050565b60c082016000820151610971600085018261093d565b506020820151610984602085018261094c565b506040820151610997604085018261094c565b5060608201516109aa606085018261093d565b5060808201516109bd608085018261093d565b5060a08201516109d060a085018261093d565b50505050565b60006109e2838361095b565b60c08301905092915050565b6000602082019050919050565b6000610a0682610911565b610a10818561091c565b9350610a1b8361092d565b8060005b83811015610a4c578151610a3388826109d6565b9750610a3e836109ee565b925050600181019050610a1f565b5085935050505092915050565b60006020820190508181036000830152610a7381846109fb565b905092915050565b60008060408385031215610a9257610a9161075b565b5b6000610aa085828601610781565b9250506020610ab1858286016107b7565b9150509250929050565b610ac481610760565b82525050565b610ad381610796565b82525050565b600060c082019050610aee6000830189610abb565b610afb6020830188610aca565b610b086040830187610aca565b610b156060830186610abb565b610b226080830185610abb565b610b2f60a0830184610abb565b979650505050505050565b6000602082019050610b4f6000830184610abb565b92915050565b6000604082019050610b6a6000830185610aca565b610b776020830184610aca565b9392505050565b7f4e487b7100000000000000000000000000000000000000000000000000000000600052603260045260246000fdfea2646970667358221220e98e2f2556c8c01c72fbdf4d8344acabcf619bef921ff37515b2e45672cb624464736f6c63430008180033",
  "linkReferences": {},
  "deployedLinkReferences": {}
}