{"contracts/ConsentAudit.sol":{"ConsentAudit":{"abi":[{"anonymous":false,"inputs":[{"indexed":true,"internalType":"bytes32","name":"resource","type":"bytes32"},{"indexed":true,"internalType":"bytes32","name":"client_id","type":"bytes32"},{"indexed":false,"internalType":"uint256","name":"from","type":"uint256"},{"indexed":false,"internalType":"uint256","name":"to","type":"uint256"}],"name":"NewConsent","type":"event"},{"anonymous":false,"inputs":[{"indexed":true,"internalType":"bytes32","name":"resource","type":"bytes32"},{"indexed":true,"internalType":"bytes32","name":"client_id","type":"bytes32"}],"name":"RevokedConsent","type":"event"},{"inputs":[{"internalType":"bytes32","name":"resource","type":"bytes32"}],"name":"getConsents","outputs":[{"components":[{"internalType":"bytes32","name":"client_id","type":"bytes32"},{"internalType":"uint256","name":"from","type":"uint256"},{"internalType":"uint256","name":"to","type":"uint256"},{"internalType":"bytes32","name":"auth_server_url","type":"bytes32"},{"internalType":"bytes32","name":"auth_server_tag","type":"bytes32"},{"internalType":"bytes32","name":"scope","type":"bytes32"}],"internalType":"struct ConsentAudit.Consent[]","name":"","type":"tuple[]"}],"stateMutability":"view","type":"function"},{"inputs":[{"internalType":"bytes32","name":"resource","type":"bytes32"},{"internalType":"bytes32","name":"client_id","type":"bytes32"}],"name":"getEffectiveness","outputs":[{"internalType":"uint256","name":"","type":"uint256"},{"internalType":"uint256","name":"","type":"uint256"}],"stateMutability":"view","type":"function"},{"inputs":[{"internalType":"bytes32","name":"resource","type":"bytes32"},{"internalType":"bytes32","name":"client_id","type":"bytes32"}],"name":"getScope","outputs":[{"internalType":"bytes32","name":"","type":"bytes32"}],"stateMutability":"view","type":"function"},{"inputs":[{"internalType":"bytes32","name":"resource","type":"bytes32"},{"internalType":"bytes32","name":"client_id","type":"bytes32"},{"internalType":"bytes32","name":"auth_server_url","type":"bytes32"},{"internalType":"bytes32","name":"auth_server_tag","type":"bytes32"},{"internalType":"uint256","name":"from","type":"uint256"},{"internalType":"uint256","name":"to","type":"uint256"},{"internalType":"bytes32","name":"scope","type":"bytes32"}],"name":"grantConsent","outputs":[],"stateMutability":"nonpayable","type":"function"},{"inputs":[{"internalType":"bytes32","name":"resource","type":"bytes32"},{"internalType":"bytes32","name":"client_id","type":"bytes32"}],"name":"isValidConsent","outputs":[{"internalType":"bool","name":"","type":"bool"}],"stateMutability":"view","type":"function"},{"inputs":[{"internalType":"bytes32","name":"","type":"bytes32"},{"internalType":"uint256","name":"","type":"uint256"}],"name":"resources","outputs":[{"internalType":"bytes32","name":"client_id","type":"bytes32"},{"internalType":"uint256","name":"from","type":"uint256"},{"internalType":"uint256","name":"to","type":"uint256"},{"internalType":"bytes32","name":"auth_server_url","type":"bytes32"},{"internalType":"bytes32","name":"auth_server_tag","type":"bytes32"},{"internalType":"bytes32","name":"scope","type":"bytes32"}],"stateMutability":"view","type":"function"},{"inputs":[{"internalType":"bytes32","name":"resource","type":"bytes32"},{"internalType":"bytes32","name":"client_id","type":"bytes32"}],"name":"revokeConsent","outputs":[],"stateMutability":"nonpayable","type":"function"}],"evm":{"bytecode":{"linkReferences":{},"object":"608060405234801561001057600080fd5b50610be3806100206000396000f3fe608060405234801561001057600080fd5b506004361061007d5760003560e01c8063baf760a11161005b578063baf760a1146100fe578063c53ee1be14610133578063ee39e6c614610163578063fcef4ab41461017f5761007d565b806334cab56f14610082578063718bdb961461009e578063b83fa9f6146100ce575b600080fd5b61009c600480360381019061009791906107cc565b6101b0565b005b6100b860048036038101906100b3919061086e565b6102a0565b6040516100c591906108c9565b60405180910390f35b6100e860048036038101906100e391906108e4565b610324565b6040516100f59190610a59565b60405180910390f35b61011860048036038101906101139190610a7b565b6103d1565b60405161012a96959493929190610ad9565b60405180910390f35b61014d6004803603810190610148919061086e565b61042a565b60405161015a9190610b3a565b60405180910390f35b61017d6004803603810190610178919061086e565b6104e2565b005b6101996004803603810190610194919061086e565b610669565b6040516101a7929190610b55565b60405180910390f35b60006040518060c00160405280888152602001858152602001848152602001878152602001868152602001838152509050600080898152602001908152602001600020819080600181540180825580915050600190039060005260206000209060060201600090919091909150600082015181600001556020820151816001015560408201518160020155606082015181600301556080820151816004015560a08201518160050155505086887f0ac3a738ad399f5ed4a7cb3db5d450e06c3db7993ccb4988fac33328863e3848868660405161028e929190610b55565b60405180910390a35050505050505050565b600080600090505b60008085815260200190815260200160002080549050811015610318578260008086815260200190815260200160002082815481106102ea576102e9610b7e565b5b9060005260206000209060060201600001540361030b57600191505061031e565b80806001019150506102a8565b50600090505b92915050565b6060600080838152602001908152602001600020805480602002602001604051908101604052809291908181526020016000905b828210156103c657838290600052602060002090600602016040518060c0016040529081600082015481526020016001820154815260200160028201548152602001600382015481526020016004820154815260200160058201548152505081526020019060010190610358565b505050509050919050565b600060205281600052604060002081815481106103ed57600080fd5b9060005260206000209060060201600091509150508060000154908060010154908060020154908060030154908060040154908060050154905086565b600080600090505b600080858152602001908152602001600020805490508110156104d65782600080868152602001908152602001600020828154811061047457610473610b7e565b5b906000526020600020906006020160000154036104c95760008085815260200190815260200160002081815481106104af576104ae610b7e565b5b9060005260206000209060060201600501549150506104dc565b8080600101915050610432565b50600090505b92915050565b60005b600080848152602001908152602001600020805490508110156106635781600080858152602001908152602001600020828154811061052757610526610b7e565b5b90600052602060002090600602016000015403610656576040518060c001604052806000801b815260200160008152602001600081526020016000801916815260200160008019168152602001600080191681525060008085815260200190815260200160002082815481106105a05761059f610b7e565b5b9060005260206000209060060201600082015181600001556020820151816001015560408201518160020155606082015181600301556080820151816004015560a08201518160050155905050600080848152602001908152602001600020818154811061061157610610610b7e565b5b906000526020600020906006020160000154837fed99b2f755cff26bbf9850dcc1a2aa318b66beb6ade67a7796b2c2c580dd072560405160405180910390a350610665565b80806001019150506104e5565b505b5050565b60008060005b6000808681526020019081526020016000208054905081101561074b578360008087815260200190815260200160002082815481106106b1576106b0610b7e565b5b9060005260206000209060060201600001540361073e5760008086815260200190815260200160002081815481106106ec576106eb610b7e565b5b906000526020600020906006020160010154600080878152602001908152602001600020828154811061072257610721610b7e565b5b9060005260206000209060060201600201549250925050610754565b808060010191505061066f565b50600080915091505b9250929050565b600080fd5b6000819050919050565b61077381610760565b811461077e57600080fd5b50565b6000813590506107908161076a565b92915050565b6000819050919050565b6107a981610796565b81146107b457600080fd5b50565b6000813590506107c6816107a0565b92915050565b600080600080600080600060e0888a0312156107eb576107ea61075b565b5b60006107f98a828b01610781565b975050602061080a8a828b01610781565b965050604061081b8a828b01610781565b955050606061082c8a828b01610781565b945050608061083d8a828b016107b7565b93505060a061084e8a828b016107b7565b92505060c061085f8a828b01610781565b91505092959891949750929550565b600080604083850312156108855761088461075b565b5b600061089385828601610781565b92505060206108a485828601610781565b9150509250929050565b60008115159050919050565b6108c3816108ae565b82525050565b60006020820190506108de60008301846108ba565b92915050565b6000602082840312156108fa576108f961075b565b5b600061090884828501610781565b91505092915050565b600081519050919050565b600082825260208201905092915050565b6000819050602082019050919050565b61094681610760565b82525050565b61095581610796565b82525050565b60c082016000820151610971600085018261093d565b506020820151610984602085018261094c565b506040820151610997604085018261094c565b5060608201516109aa606085018261093d565b5060808201516109bd608085018261093d565b5060a08201516109d060a085018261093d565b50505050565b60006109e2838361095b565b60c08301905092915050565b6000602082019050919050565b6000610a0682610911565b610a10818561091c565b9350610a1b8361092d565b8060005b83811015610a4c578151610a3388826109d6565b9750610a3e836109ee565b925050600181019050610a1f565b5085935050505092915050565b60006020820190508181036000830152610a7381846109fb565b905092915050565b60008060408385031215610a9257610a9161075b565b5b6000610aa085828601610781565b9250506020610ab1858286016107b7565b9150509250929050565b610ac481610760565b82525050565b610ad381610796565b82525050565b600060c082019050610aee6000830189610abb565b610afb6020830188610aca565b610b086040830187610aca565b610b156060830186610abb565b610b226080830185610abb565b610b2f60a0830184610abb565b979650505050505050565b6000602082019050610b4f6000830184610abb565b92915050565b6000604082019050610b6a6000830185610aca565b610b776020830184610aca565b9392505050565b7f4e487b7100000000000000000000000000000000000000000000000000000000600052603260045260246000fdfea2646970667358221220e98e2f2556c8c01c72fbdf4d8344acabcf619bef921ff37515b2e45672cb624464736f6c63430008180033","opcodes":"PUSH1 0x80 PUSH1 0x40 MSTORE CALLVALUE DUP1 ISZERO PUSH2 0x10 JUMPI PUSH1 0x0 DUP1 REVERT JUMPDEST POP PUSH2 0xBE3 DUP1 PUSH2 0x20 PUSH1 0x0 CODECOPY PUSH1 0x0 RETURN INVALID PUSH1 0x80 PUSH1 0x40 MSTORE CALLVALUE DUP1 ISZERO PUSH2 0x10 JUMPI PUSH1 0x0 DUP1 REVERT JUMPDEST POP PUSH1 0x4 CALLDATASIZE LT PUSH2 0x7D JUMPI PUSH1 0x0 CALLDATALOAD PUSH1 0xE0 SHR DUP1 PUSH4 0xBAF760A1 GT PUSH2 0x5B JUMPI DUP1 PUSH4 0xBAF760A1 EQ PUSH2 0xFE JUMPI DUP1 PUSH4 0xC53EE1BE EQ PUSH2 0x133 JUMPI DUP1 PUSH4 0xEE39E6C6 EQ PUSH2 0x163 JUMPI DUP1 PUSH4 0xFCEF4AB4 EQ PUSH2 0x17F JUMPI PUSH2 0x7D JUMP JUMPDEST DUP1 PUSH4 0x34CAB56F EQ PUSH2 0x82 JUMPI DUP1 PUSH4 0x718BDB96 EQ PUSH2 0x9E JUMPI DUP1 PUSH4 0xB83FA9F6 EQ PUSH2 0xCE JUMPI JUMPDEST PUSH1 0x0 DUP1 REVERT JUMPDEST PUSH2 0x9C PUSH1 0x4 DUP1 CALLDATASIZE SUB DUP2 ADD SWAP1 PUSH2 0x97 SWAP2 SWAP1 PUSH2 0x7CC JUMP JUMPDEST PUSH2 0x1B0 JUMP JUMPDEST STOP JUMPDEST PUSH2 0xB8 PUSH1 0x4 DUP1 CALLDATASIZE SUB DUP2 ADD SWAP1 PUSH2 0xB3 SWAP2 SWAP1 PUSH2 0x86E JUMP JUMPDEST PUSH2 0x2A0 JUMP JUMPDEST PUSH1 0x40 MLOAD PUSH2 0xC5 SWAP2 SWAP1 PUSH2 0x8C9 JUMP JUMPDEST PUSH1 0x40 MLOAD DUP1 SWAP2 SUB SWAP1 RETURN JUMPDEST PUSH2 0xE8 PUSH1 0x4 DUP1 CALLDATASIZE SUB DUP2 ADD SWAP1 PUSH2 0xE3 SWAP2 SWAP1 PUSH2 0x8E4 JUMP JUMPDEST PUSH2 0x324 JUMP JUMPDEST PUSH1 0x40 MLOAD PUSH2 0xF5 SWAP2 SWAP1 PUSH2 0xA59 JUMP JUMPDEST PUSH1 0x40 MLOAD DUP1 SWAP2 SUB SWAP1 RETURN JUMPDEST PUSH2 0x118 PUSH1 0x4 DUP1 CALLDATASIZE SUB DUP2 ADD SWAP1 PUSH2 0x113 SWAP2 SWAP1 PUSH2 0xA7B JUMP JUMPDEST PUSH2 0x3D1 JUMP JUMPDEST PUSH1 0x40 MLOAD PUSH2 0x12A SWAP7 SWAP6 SWAP5 SWAP4 SWAP3 SWAP2 SWAP1 PUSH2 0xAD9 JUMP JUMPDEST PUSH1 0x40 MLOAD DUP1 SWAP2 SUB SWAP1 RETURN JUMPDEST PUSH2 0x14D PUSH1 0x4 DUP1 CALLDATASIZE SUB DUP2 ADD SWAP1 PUSH2 0x148 SWAP2 SWAP1 PUSH2 0x86E JUMP JUMPDEST PUSH2 0x42A JUMP JUMPDEST PUSH1 0x40 MLOAD PUSH2 0x15A SWAP2 SWAP1 PUSH2 0xB3A JUMP JUMPDEST PUSH1 0x40 MLOAD DUP1 SWAP2 SUB SWAP1 RETURN JUMPDEST PUSH2 0x17D PUSH1 0x4 DUP1 CALLDATASIZE SUB DUP2 ADD SWAP1 PUSH2 0x178 SWAP2 SWAP1 PUSH2 0x86E JUMP JUMPDEST PUSH2 0x4E2 JUMP JUMPDEST STOP JUMPDEST PUSH2 0x199 PUSH1 0x4 DUP1 CALLDATASIZE SUB DUP2 ADD SWAP1 PUSH2 0x194 SWAP2 SWAP1 PUSH2 0x86E JUMP JUMPDEST PUSH2 0x669 JUMP JUMPDEST PUSH1 0x40 MLOAD PUSH2 0x1A7 SWAP3 SWAP2 SWAP1 PUSH2 0xB55 JUMP JUMPDEST PUSH1 0x40 MLOAD DUP1 SWAP2 SUB SWAP1 RETURN JUMPDEST PUSH1 0x0 PUSH1 0x40 MLOAD DUP1 PUSH1 0xC0 ADD PUSH1 0x40 MSTORE DUP1 DUP9 DUP2 MSTORE PUSH1 0x20 ADD DUP6 DUP2 MSTORE PUSH1 0x20 ADD DUP5 DUP2 MSTORE PUSH1 0x20 ADD DUP8 DUP2 MSTORE PUSH1 0x20 ADD DUP7 DUP2 MSTORE PUSH1 0x20 ADD DUP4 DUP2 MSTORE POP SWAP1 POP PUSH1 0x0 DUP1 DUP10 DUP2 MSTORE PUSH1 0x20 ADD SWAP1 DUP2 MSTORE PUSH1 0x20 ADD PUSH1 0x0 KECCAK256 DUP2 SWAP1 DUP1 PUSH1 0x1 DUP2 SLOAD ADD DUP1 DUP3 SSTORE DUP1 SWAP2 POP POP PUSH1 0x1 SWAP1 SUB SWAP1 PUSH1 0x0 MSTORE PUSH1 0x20 PUSH1 0x0 KECCAK256 SWAP1 PUSH1 0x6 MUL ADD PUSH1 0x0 SWAP1 SWAP2 SWAP1 SWAP2 SWAP1 SWAP2 POP PUSH1 0x0 DUP3 ADD MLOAD DUP2 PUSH1 0x0 ADD SSTORE PUSH1 0x20 DUP3 ADD MLOAD DUP2 PUSH1 0x1 ADD SSTORE PUSH1 0x40 DUP3 ADD MLOAD DUP2 PUSH1 0x2 ADD SSTORE PUSH1 0x60 DUP3 ADD MLOAD DUP2 PUSH1 0x3 ADD SSTORE PUSH1 0x80 DUP3 ADD MLOAD DUP2 PUSH1 0x4 ADD SSTORE PUSH1 0xA0 DUP3 ADD MLOAD DUP2 PUSH1 0x5 ADD SSTORE POP POP DUP7 DUP9 PUSH32 0xAC3A738AD399F5ED4A7CB3DB5D450E06C3DB7993CCB4988FAC33328863E3848 DUP7 DUP7 PUSH1 0x40 MLOAD PUSH2 0x28E SWAP3 SWAP2 SWAP1 PUSH2 0xB55 JUMP JUMPDEST PUSH1 0x40 MLOAD DUP1 SWAP2 SUB SWAP1 LOG3 POP POP POP POP POP POP POP POP JUMP JUMPDEST PUSH1 0x0 DUP1 PUSH1 0x0 SWAP1 POP JUMPDEST PUSH1 0x0 DUP1 DUP6 DUP2 MSTORE PUSH1 0x20 ADD SWAP1 DUP2 MSTORE PUSH1 0x20 ADD PUSH1 0x0 KECCAK256 DUP1 SLOAD SWAP1 POP DUP2 LT ISZERO PUSH2 0x318 JUMPI DUP3 PUSH1 0x0 DUP1 DUP7 DUP2 MSTORE PUSH1 0x20 ADD SWAP1 DUP2 MSTORE PUSH1 0x20 ADD PUSH1 0x0 KECCAK256 DUP3 DUP2 SLOAD DUP2 LT PUSH2 0x2EA JUMPI PUSH2 0x2E9 PUSH2 0xB7E JUMP JUMPDEST JUMPDEST SWAP1 PUSH1 0x0 MSTORE PUSH1 0x20 PUSH1 0x0 KECCAK256 SWAP1 PUSH1 0x6 MUL ADD PUSH1 0x0 ADD SLOAD SUB PUSH2 0x30B JUMPI PUSH1 0x1 SWAP2 POP POP PUSH2 0x31E JUMP JUMPDEST DUP1 DUP1 PUSH1 0x1 ADD SWAP2 POP POP PUSH2 0x2A8 JUMP JUMPDEST POP PUSH1 0x0 SWAP1 POP JUMPDEST SWAP3 SWAP2 POP POP JUMP JUMPDEST PUSH1 0x60 PUSH1 0x0 DUP1 DUP4 DUP2 MSTORE PUSH1 0x20 ADD SWAP1 DUP2 MSTORE PUSH1 0x20 ADD PUSH1 0x0 KECCAK256 DUP1 SLOAD DUP1 PUSH1 0x20 MUL PUSH1 0x20 ADD PUSH1 0x40 MLOAD SWAP1 DUP2 ADD PUSH1 0x40 MSTORE DUP1 SWAP3 SWAP2 SWAP1 DUP2 DUP2 MSTORE PUSH1 0x20 ADD PUSH1 0x0 SWAP1 JUMPDEST DUP3 DUP3 LT ISZERO PUSH2 0x3C6 JUMPI DUP4 DUP3 SWAP1 PUSH1 0x0 MSTORE PUSH1 0x20 PUSH1 0x0 KECCAK256 SWAP1 PUSH1 0x6 MUL ADD PUSH1 0x40 MLOAD DUP1 PUSH1 0xC0 ADD PUSH1 0x40 MSTORE SWAP1 DUP2 PUSH1 0x0 DUP3 ADD SLOAD DUP2 MSTORE PUSH1 0x20 ADD PUSH1 0x1 DUP3 ADD SLOAD DUP2 MSTORE PUSH1 0x20 ADD PUSH1 0x2 DUP3 ADD SLOAD DUP2 MSTORE PUSH1 0x20 ADD PUSH1 0x3 DUP3 ADD SLOAD DUP2 MSTORE PUSH1 0x20 ADD PUSH1 0x4 DUP3 ADD SLOAD DUP2 MSTORE PUSH1 0x20 ADD PUSH1 0x5 DUP3 ADD SLOAD DUP2 MSTORE POP POP DUP2 MSTORE PUSH1 0x20 ADD SWAP1 PUSH1 0x1 ADD SWAP1 PUSH2 0x358 JUMP JUMPDEST POP POP POP POP SWAP1 POP SWAP2 SWAP1 POP JUMP JUMPDEST PUSH1 0x0 PUSH1 0x20 MSTORE DUP2 PUSH1 0x0 MSTORE PUSH1 0x40 PUSH1 0x0 KECCAK256 DUP2 DUP2 SLOAD DUP2 LT PUSH2 0x3ED JUMPI PUSH1 0x0 DUP1 REVERT JUMPDEST SWAP1 PUSH1 0x0 MSTORE PUSH1 0x20 PUSH1 0x0 KECCAK256 SWAP1 PUSH1 0x6 MUL ADD PUSH1 0x0 SWAP2 POP SWAP2 POP POP DUP1 PUSH1 0x0 ADD SLOAD SWAP1 DUP1 PUSH1 0x1 ADD SLOAD SWAP1 DUP1 PUSH1 0x2 ADD SLOAD SWAP1 DUP1 PUSH1 0x3 ADD SLOAD SWAP1 DUP1 PUSH1 0x4 ADD SLOAD SWAP1 DUP1 PUSH1 0x5 ADD SLOAD SWAP1 POP DUP7 JUMP JUMPDEST PUSH1 0x0 DUP1 PUSH1 0x0 SWAP1 POP JUMPDEST PUSH1 0x0 DUP1 DUP6 DUP2 MSTORE PUSH1 0x20 ADD SWAP1 DUP2 MSTORE PUSH1 0x20 ADD PUSH1 0x0 KECCAK256 DUP1 SLOAD SWAP1 POP DUP2 LT ISZERO PUSH2 0x4D6 JUMPI DUP3 PUSH1 0x0 DUP1 DUP7 DUP2 MSTORE PUSH1 0x20 ADD SWAP1 DUP2 MSTORE PUSH1 0x20 ADD PUSH1 0x0 KECCAK256 DUP3 DUP2 SLOAD DUP2 LT PUSH2 0x474 JUMPI PUSH2 0x473 PUSH2 0xB7E JUMP JUMPDEST JUMPDEST SWAP1 PUSH1 0x0 MSTORE PUSH1 0x20 PUSH1 0x0 KECCAK256 SWAP1 PUSH1 0x6 MUL ADD PUSH1 0x0 ADD SLOAD SUB PUSH2 0x4C9 JUMPI PUSH1 0x0 DUP1 DUP6 DUP2 MSTORE PUSH1 0x20 ADD SWAP1 DUP2 MSTORE PUSH1 0x20 ADD PUSH1 0x0 KECCAK256 DUP2 DUP2 SLOAD DUP2 LT PUSH2 0x4AF JUMPI PUSH2 0x4AE PUSH2 0xB7E JUMP JUMPDEST JUMPDEST SWAP1 PUSH1 0x0 MSTORE PUSH1 0x20 PUSH1 0x0 KECCAK256 SWAP1 PUSH1 0x6 MUL ADD PUSH1 0x5 ADD SLOAD SWAP2 POP POP PUSH2 0x4DC JUMP JUMPDEST DUP1 DUP1 PUSH1 0x1 ADD SWAP2 POP POP PUSH2 0x432 JUMP JUMPDEST POP PUSH1 0x0 SWAP1 POP JUMPDEST SWAP3 SWAP2 POP POP JUMP JUMPDEST PUSH1 0x0 JUMPDEST PUSH1 0x0 DUP1 DUP5 DUP2 MSTORE PUSH1 0x20 ADD SWAP1 DUP2 MSTORE PUSH1 0x20 ADD PUSH1 0x0 KECCAK256 DUP1 SLOAD SWAP1 POP DUP2 LT ISZERO PUSH2 0x663 JUMPI DUP2 PUSH1 0x0 DUP1 DUP6 DUP2 MSTORE PUSH1 0x20 ADD SWAP1 DUP2 MSTORE PUSH1 0x20 ADD PUSH1 0x0 KECCAK256 DUP3 DUP2 SLOAD DUP2 LT PUSH2 0x527 JUMPI PUSH2 0x526 PUSH2 0xB7E JUMP JUMPDEST JUMPDEST SWAP1 PUSH1 0x0 MSTORE PUSH1 0x20 PUSH1 0x0 KECCAK256 SWAP1 PUSH1 0x6 MUL ADD PUSH1 0x0 ADD SLOAD SUB PUSH2 0x656 JUMPI PUSH1 0x40 MLOAD DUP1 PUSH1 0xC0 ADD PUSH1 0x40 MSTORE DUP1 PUSH1 0x0 DUP1 SHL DUP2 MSTORE PUSH1 0x20 ADD PUSH1 0x0 DUP2 MSTORE PUSH1 0x20 ADD PUSH1 0x0 DUP2 MSTORE PUSH1 0x20 ADD PUSH1 0x0 DUP1 NOT AND DUP2 MSTORE PUSH1 0x20 ADD PUSH1 0x0 DUP1 NOT AND DUP2 MSTORE PUSH1 0x20 ADD PUSH1 0x0 DUP1 NOT AND DUP2 MSTORE POP PUSH1 0x0 DUP1 DUP6 DUP2 MSTORE PUSH1 0x20 ADD SWAP1 DUP2 MSTORE PUSH1 0x20 ADD PUSH1 0x0 KECCAK256 DUP3 DUP2 SLOAD DUP2 LT PUSH2 0x5A0 JUMPI PUSH2 0x59F PUSH2 0xB7E JUMP JUMPDEST JUMPDEST SWAP1 PUSH1 0x0 MSTORE PUSH1 0x20 PUSH1 0x0 KECCAK256 SWAP1 PUSH1 0x6 MUL ADD PUSH1 0x0 DUP3 ADD MLOAD DUP2 PUSH1 0x0 ADD SSTORE PUSH1 0x20 DUP3 ADD MLOAD DUP2 PUSH1 0x1 ADD SSTORE PUSH1 0x40 DUP3 ADD MLOAD DUP2 PUSH1 0x2 ADD SSTORE PUSH1 0x60 DUP3 ADD MLOAD DUP2 PUSH1 0x3 ADD SSTORE PUSH1 0x80 DUP3 ADD MLOAD DUP2 PUSH1 0x4 ADD SSTORE PUSH1 0xA0 DUP3 ADD MLOAD DUP2 PUSH1 0x5 ADD SSTORE SWAP1 POP POP PUSH1 0x0 DUP1 DUP5 DUP2 MSTORE PUSH1 0x20 ADD SWAP1 DUP2 MSTORE PUSH1 0x20 ADD PUSH1 0x0 KECCAK256 DUP2 DUP2 SLOAD DUP2 LT PUSH2 0x611 JUMPI PUSH2 0x610 PUSH2 0xB7E JUMP JUMPDEST JUMPDEST SWAP1 PUSH1 0x0 MSTORE PUSH1 0x20 PUSH1 0x0 KECCAK256 SWAP1 PUSH1 0x6 MUL ADD PUSH1 0x0 ADD SLOAD DUP4 PUSH32 0xED99B2F755CFF26BBF9850DCC1A2AA318B66BEB6ADE67A7796B2C2C580DD0725 PUSH1 0x40 MLOAD PUSH1 0x40 MLOAD DUP1 SWAP2 SUB SWAP1 LOG3 POP PUSH2 0x665 JUMP JUMPDEST DUP1 DUP1 PUSH1 0x1 ADD SWAP2 POP POP PUSH2 0x4E5 JUMP JUMPDEST POP JUMPDEST POP POP JUMP JUMPDEST PUSH1 0x0 DUP1 PUSH1 0x0 JUMPDEST PUSH1 0x0 DUP1 DUP7 DUP2 MSTORE PUSH1 0x20 ADD SWAP1 DUP2 MSTORE PUSH1 0x20 ADD PUSH1 0x0 KECCAK256 DUP1 SLOAD SWAP1 POP DUP2 LT ISZERO PUSH2 0x74B JUMPI DUP4 PUSH1 0x0 DUP1 DUP8 DUP2 MSTORE PUSH1 0x20 ADD SWAP1 DUP2 MSTORE PUSH1 0x20 ADD PUSH1 0x0 KECCAK256 DUP3 DUP2 SLOAD DUP2 LT PUSH2 0x6B1 JUMPI PUSH2 0x6B0 PUSH2 0xB7E JUMP JUMPDEST JUMPDEST SWAP1 PUSH1 0x0 MSTORE PUSH1 0x20 PUSH1 0x0 KECCAK256 SWAP1 PUSH1 0x6 MUL ADD PUSH1 0x0 ADD SLOAD SUB PUSH2 0x73E JUMPI PUSH1 0x0 DUP1 DUP7 DUP2 MSTORE PUSH1 0x20 ADD SWAP1 DUP2 MSTORE PUSH1 0x20 ADD PUSH1 0x0 KECCAK256 DUP2 DUP2 SLOAD DUP2 LT PUSH2 0x6EC JUMPI PUSH2 0x6EB PUSH2 0xB7E JUMP JUMPDEST JUMPDEST SWAP1 PUSH1 0x0 MSTORE PUSH1 0x20 PUSH1 0x0 KECCAK256 SWAP1 PUSH1 0x6 MUL ADD PUSH1 0x1 ADD SLOAD PUSH1 0x0 DUP1 DUP8 DUP2 MSTORE PUSH1 0x20 ADD SWAP1 DUP2 MSTORE PUSH1 0x20 ADD PUSH1 0x0 KECCAK256 DUP3 DUP2 SLOAD DUP2 LT PUSH2 0x722 JUMPI PUSH2 0x721 PUSH2 0xB7E JUMP JUMPDEST JUMPDEST SWAP1 PUSH1 0x0 MSTORE PUSH1 0x20 PUSH1 0x0 KECCAK256 SWAP1 PUSH1 0x6 MUL ADD PUSH1 0x2 ADD SLOAD SWAP3 POP SWAP3 POP POP PUSH2 0x754 JUMP JUMPDEST DUP1 DUP1 PUSH1 0x1 ADD SWAP2 POP POP PUSH2 0x66F JUMP JUMPDEST POP PUSH1 0x0 DUP1 SWAP2 POP SWAP2 POP JUMPDEST SWAP3 POP SWAP3 SWAP1 POP JUMP JUMPDEST PUSH1 0x0 DUP1 REVERT JUMPDEST PUSH1 0x0 DUP2 SWAP1 POP SWAP2 SWAP1 POP JUMP JUMPDEST PUSH2 0x773 DUP2 PUSH2 0x760 JUMP JUMPDEST DUP2 EQ PUSH2 0x77E JUMPI PUSH1 0x0 DUP1 REVERT JUMPDEST POP JUMP JUMPDEST PUSH1 0x0 DUP2 CALLDATALOAD SWAP1 POP PUSH2 0x790 DUP2 PUSH2 0x76A JUMP JUMPDEST SWAP3 SWAP2 POP POP JUMP JUMPDEST PUSH1 0x0 DUP2 SWAP1 POP SWAP2 SWAP1 POP JUMP JUMPDEST PUSH2 0x7A9 DUP2 PUSH2 0x796 JUMP JUMPDEST DUP2 EQ PUSH2 0x7B4 JUMPI PUSH1 0x0 DUP1 REVERT JUMPDEST POP JUMP JUMPDEST PUSH1 0x0 DUP2 CALLDATALOAD SWAP1 POP PUSH2 0x7C6 DUP2 PUSH2 0x7A0 JUMP JUMPDEST SWAP3 SWAP2 POP POP JUMP JUMPDEST PUSH1 0x0 DUP1 PUSH1 0x0 DUP1 PUSH1 0x0 DUP1 PUSH1 0x0 PUSH1 0xE0 DUP9 DUP11 SUB SLT ISZERO PUSH2 0x7EB JUMPI PUSH2 0x7EA PUSH2 0x75B JUMP JUMPDEST JUMPDEST PUSH1 0x0 PUSH2 0x7F9 DUP11 DUP3 DUP12 ADD PUSH2 0x781 JUMP JUMPDEST SWAP8 POP POP PUSH1 0x20 PUSH2 0x80A DUP11 DUP3 DUP12 ADD PUSH2 0x781 JUMP JUMPDEST SWAP7 POP POP PUSH1 0x40 PUSH2 0x81B DUP11 DUP3 DUP12 ADD PUSH2 0x781 JUMP JUMPDEST SWAP6 POP POP PUSH1 0x60 PUSH2 0x82C DUP11 DUP3 DUP12 ADD PUSH2 0x781 JUMP JUMPDEST SWAP5 POP POP PUSH1 0x80 PUSH2 0x83D DUP11 DUP3 DUP12 ADD PUSH2 0x7B7 JUMP JUMPDEST SWAP4 POP POP PUSH1 0xA0 PUSH2 0x84E DUP11 DUP3 DUP12 ADD PUSH2 0x7B7 JUMP JUMPDEST SWAP3 POP POP PUSH1 0xC0 PUSH2 0x85F DUP11 DUP3 DUP12 ADD PUSH2 0x781 JUMP JUMPDEST SWAP2 POP POP SWAP3 SWAP6 SWAP9 SWAP2 SWAP5 SWAP8 POP SWAP3 SWAP6 POP JUMP JUMPDEST PUSH1 0x0 DUP1 PUSH1 0x40 DUP4 DUP6 SUB SLT ISZERO PUSH2 0x885 JUMPI PUSH2 0x884 PUSH2 0x75B JUMP JUMPDEST JUMPDEST PUSH1 0x0 PUSH2 0x893 DUP6 DUP3 DUP7 ADD PUSH2 0x781 JUMP JUMPDEST SWAP3 POP POP PUSH1 0x20 PUSH2 0x8A4 DUP6 DUP3 DUP7 ADD PUSH2 0x781 JUMP JUMPDEST SWAP2 POP POP SWAP3 POP SWAP3 SWAP1 POP JUMP JUMPDEST PUSH1 0x0 DUP2 ISZERO ISZERO SWAP1 POP SWAP2 SWAP1 POP JUMP JUMPDEST PUSH2 0x8C3 DUP2 PUSH2 0x8AE JUMP JUMPDEST DUP3 MSTORE POP POP JUMP JUMPDEST PUSH1 0x0 PUSH1 0x20 DUP3 ADD SWAP1 POP PUSH2 0x8DE PUSH1 0x0 DUP4 ADD DUP5 PUSH2 0x8BA JUMP JUMPDEST SWAP3 SWAP2 POP POP JUMP JUMPDEST PUSH1 0x0 PUSH1 0x20 DUP3 DUP5 SUB SLT ISZERO PUSH2 0x8FA JUMPI PUSH2 0x8F9 PUSH2 0x75B JUMP JUMPDEST JUMPDEST PUSH1 0x0 PUSH2 0x908 DUP5 DUP3 DUP6 ADD PUSH2 0x781 JUMP JUMPDEST SWAP2 POP POP SWAP3 SWAP2 POP POP JUMP JUMPDEST PUSH1 0x0 DUP2 MLOAD SWAP1 POP SWAP2 SWAP1 POP JUMP JUMPDEST PUSH1 0x0 DUP3 DUP3 MSTORE PUSH1 0x20 DUP3 ADD SWAP1 POP SWAP3 SWAP2 POP POP JUMP JUMPDEST PUSH1 0x0 DUP2 SWAP1 POP PUSH1 0x20 DUP3 ADD SWAP1 POP SWAP2 SWAP1 POP JUMP JUMPDEST PUSH2 0x946 DUP2 PUSH2 0x760 JUMP JUMPDEST DUP3 MSTORE POP POP JUMP JUMPDEST PUSH2 0x955 DUP2 PUSH2 0x796 JUMP JUMPDEST DUP3 MSTORE POP POP JUMP JUMPDEST PUSH1 0xC0 DUP3 ADD PUSH1 0x0 DUP3 ADD MLOAD PUSH2 0x971 PUSH1 0x0 DUP6 ADD DUP3 PUSH2 0x93D JUMP JUMPDEST POP PUSH1 0x20 DUP3 ADD MLOAD PUSH2 0x984 PUSH1 0x20 DUP6 ADD DUP3 PUSH2 0x94C JUMP JUMPDEST POP PUSH1 0x40 DUP3 ADD MLOAD PUSH2 0x997 PUSH1 0x40 DUP6 ADD DUP3 PUSH2 0x94C JUMP JUMPDEST POP PUSH1 0x60 DUP3 ADD MLOAD PUSH2 0x9AA PUSH1 0x60 DUP6 ADD DUP3 PUSH2 0x93D JUMP JUMPDEST POP PUSH1 0x80 DUP3 ADD MLOAD PUSH2 0x9BD PUSH1 0x80 DUP6 ADD DUP3 PUSH2 0x93D JUMP JUMPDEST POP PUSH1 0xA0 DUP3 ADD MLOAD PUSH2 0x9D0 PUSH1 0xA0 DUP6 ADD DUP3 PUSH2 0x93D JUMP JUMPDEST POP POP POP POP JUMP JUMPDEST PUSH1 0x0 PUSH2 0x9E2 DUP4 DUP4 PUSH2 0x95B JUMP JUMPDEST PUSH1 0xC0 DUP4 ADD SWAP1 POP SWAP3 SWAP2 POP POP JUMP JUMPDEST PUSH1 0x0 PUSH1 0x20 DUP3 ADD SWAP1 POP SWAP2 SWAP1 POP JUMP JUMPDEST PUSH1 0x0 PUSH2 0xA06 DUP3 PUSH2 0x911 JUMP JUMPDEST PUSH2 0xA10 DUP2 DUP6 PUSH2 0x91C JUMP JUMPDEST SWAP4 POP PUSH2 0xA1B DUP4 PUSH2 0x92D JUMP JUMPDEST DUP1 PUSH1 0x0 JUMPDEST DUP4 DUP2 LT ISZERO PUSH2 0xA4C JUMPI DUP2 MLOAD PUSH2 0xA33 DUP9 DUP3 PUSH2 0x9D6 JUMP JUMPDEST SWAP8 POP PUSH2 0xA3E DUP4 PUSH2 0x9EE JUMP JUMPDEST SWAP3 POP POP PUSH1 0x1 DUP2 ADD SWAP1 POP PUSH2 0xA1F JUMP JUMPDEST POP DUP6 SWAP4 POP POP POP POP SWAP3 SWAP2 POP POP JUMP JUMPDEST PUSH1 0x0 PUSH1 0x20 DUP3 ADD SWAP1 POP DUP2 DUP2 SUB PUSH1 0x0 DUP4 ADD MSTORE PUSH2 0xA73 DUP2 DUP5 PUSH2 0x9FB JUMP JUMPDEST SWAP1 POP SWAP3 SWAP2 POP POP JUMP JUMPDEST PUSH1 0x0 DUP1 PUSH1 0x40 DUP4 DUP6 SUB SLT ISZERO PUSH2 0xA92 JUMPI PUSH2 0xA91 PUSH2 0x75B JUMP JUMPDEST JUMPDEST PUSH1 0x0 PUSH2 0xAA0 DUP6 DUP3 DUP7 ADD PUSH2 0x781 JUMP JUMPDEST SWAP3 POP POP PUSH1 0x20 PUSH2 0xAB1 DUP6 DUP3 DUP7 ADD PUSH2 0x7B7 JUMP JUMPDEST SWAP2 POP POP SWAP3 POP SWAP3 SWAP1 POP JUMP JUMPDEST PUSH2 0xAC4 DUP2 PUSH2 0x760 JUMP JUMPDEST DUP3 MSTORE POP POP JUMP JUMPDEST PUSH2 0xAD3 DUP2 PUSH2 0x796 JUMP JUMPDEST DUP3 MSTORE POP POP JUMP JUMPDEST PUSH1 0x0 PUSH1 0xC0 DUP3 ADD SWAP1 POP PUSH2 0xAEE PUSH1 0x0 DUP4 ADD DUP10 PUSH2 0xABB JUMP JUMPDEST PUSH2 0xAFB PUSH1 0x20 DUP4 ADD DUP9 PUSH2 0xACA JUMP JUMPDEST PUSH2 0xB08 PUSH1 0x40 DUP4 ADD DUP8 PUSH2 0xACA JUMP JUMPDEST PUSH2 0xB15 PUSH1 0x60 DUP4 ADD DUP7 PUSH2 0xABB JUMP JUMPDEST PUSH2 0xB22 PUSH1 0x80 DUP4 ADD DUP6 PUSH2 0xABB JUMP JUMPDEST PUSH2 0xB2F PUSH1 0xA0 DUP4 ADD DUP5 PUSH2 0xABB JUMP JUMPDEST SWAP8 SWAP7 POP POP POP POP POP POP POP JUMP JUMPDEST PUSH1 0x0 PUSH1 0x20 DUP3 ADD SWAP1 POP PUSH2 0xB4F PUSH1 0x0 DUP4 ADD DUP5 PUSH2 0xABB JUMP JUMPDEST SWAP3 SWAP2 POP POP JUMP JUMPDEST PUSH1 0x0 PUSH1 0x40 DUP3 ADD SWAP1 POP PUSH2 0xB6A PUSH1 0x0 DUP4 ADD DUP6 PUSH2 0xACA JUMP JUMPDEST PUSH2 0xB77 PUSH1 0x20 DUP4 ADD DUP5 PUSH2 0xACA JUMP JUMPDEST SWAP4 SWAP3 POP POP POP JUMP JUMPDEST PUSH32 0x4E487B7100000000000000000000000000000000000000000000000000000000 PUSH1 0x0 MSTORE PUSH1 0x32 PUSH1 0x4 MSTORE PUSH1 0x24 PUSH1 0x0 REVERT INVALID LOG2 PUSH5 0x6970667358 0x22 SLT KECCAK256 0xE9 DUP15 0x2F 0x25 JUMP 0xC8 0xC0 SHR PUSH19 0xFBDF4D8344ACABCF619BEF921FF37515B2E456 PUSH19 0xCB624464736F6C634300081800330000000000 "},"methodIdentifiers":{"getConsents(bytes32)":"b83fa9f6","getEffectiveness(bytes32,bytes32)":"fcef4ab4","getScope(bytes32,bytes32)":"c53ee1be","grantConsent(bytes32,bytes32,bytes32,bytes32,uint256,uint256,bytes32)":"34cab56f","isValidConsent(bytes32,bytes32)":"718bdb96","resources(bytes32,uint256)":"baf760a1","revokeConsent(bytes32,bytes32)":"ee39e6c6"}}}}}